{
  "contractName": "Miner",
  "abi": [
    {
      "constant": true,
      "inputs": [],
      "name": "seed",
      "outputs": [
        {
          "internalType": "bytes32",
          "name": "",
          "type": "bytes32"
        }
      ],
      "payable": false,
      "stateMutability": "view",
      "type": "function"
    },
    {
      "constant": true,
      "inputs": [],
      "name": "size",
      "outputs": [
        {
          "internalType": "uint256",
          "name": "",
          "type": "uint256"
        }
      ],
      "payable": false,
      "stateMutability": "view",
      "type": "function"
    },
    {
      "constant": true,
      "inputs": [
        {
          "internalType": "address",
          "name": "",
          "type": "address"
        }
      ],
      "name": "playerPositions",
      "outputs": [
        {
          "internalType": "uint256",
          "name": "total",
          "type": "uint256"
        },
        {
          "internalType": "uint256",
          "name": "x",
          "type": "uint256"
        },
        {
          "internalType": "uint256",
          "name": "y",
          "type": "uint256"
        },
        {
          "internalType": "bool",
          "name": "initialized",
          "type": "bool"
        }
      ],
      "payable": false,
      "stateMutability": "view",
      "type": "function"
    },
    {
      "constant": true,
      "inputs": [],
      "name": "state",
      "outputs": [
        {
          "internalType": "enum Miner.GameState",
          "name": "",
          "type": "uint8"
        }
      ],
      "payable": false,
      "stateMutability": "view",
      "type": "function"
    },
    {
      "inputs": [
        {
          "internalType": "uint256",
          "name": "_size",
          "type": "uint256"
        },
        {
          "internalType": "bytes32",
          "name": "_seed",
          "type": "bytes32"
        }
      ],
      "payable": false,
      "stateMutability": "nonpayable",
      "type": "constructor"
    },
    {
      "anonymous": false,
      "inputs": [
        {
          "indexed": false,
          "internalType": "uint256",
          "name": "endBlock",
          "type": "uint256"
        }
      ],
      "name": "GameStarted",
      "type": "event"
    },
    {
      "anonymous": false,
      "inputs": [],
      "name": "GameEnded",
      "type": "event"
    },
    {
      "anonymous": false,
      "inputs": [
        {
          "indexed": false,
          "internalType": "address",
          "name": "playerAddress",
          "type": "address"
        },
        {
          "indexed": false,
          "internalType": "uint256",
          "name": "positionX",
          "type": "uint256"
        },
        {
          "indexed": false,
          "internalType": "uint256",
          "name": "positionY",
          "type": "uint256"
        },
        {
          "indexed": false,
          "internalType": "uint256",
          "name": "value",
          "type": "uint256"
        },
        {
          "indexed": false,
          "internalType": "uint256",
          "name": "total",
          "type": "uint256"
        }
      ],
      "name": "PlayerMoved",
      "type": "event"
    },
    {
      "anonymous": false,
      "inputs": [
        {
          "indexed": false,
          "internalType": "address",
          "name": "playerAddress",
          "type": "address"
        },
        {
          "indexed": false,
          "internalType": "uint256",
          "name": "positionX",
          "type": "uint256"
        },
        {
          "indexed": false,
          "internalType": "uint256",
          "name": "positionY",
          "type": "uint256"
        }
      ],
      "name": "PlayerJoined",
      "type": "event"
    },
    {
      "constant": false,
      "inputs": [
        {
          "internalType": "uint256",
          "name": "_blocksUntilEnd",
          "type": "uint256"
        }
      ],
      "name": "startGame",
      "outputs": [],
      "payable": true,
      "stateMutability": "payable",
      "type": "function"
    },
    {
      "constant": false,
      "inputs": [],
      "name": "joinGame",
      "outputs": [],
      "payable": false,
      "stateMutability": "nonpayable",
      "type": "function"
    },
    {
      "constant": false,
      "inputs": [
        {
          "internalType": "enum Miner.Direction",
          "name": "_direction",
          "type": "uint8"
        }
      ],
      "name": "move",
      "outputs": [],
      "payable": false,
      "stateMutability": "nonpayable",
      "type": "function"
    }
  ],
  "bytecode": "0x608060405234801561001057600080fd5b506040516108683803806108688339818101604052604081101561003357600080fd5b81019080805190602001909291908051906020019092919050505033600260006101000a81548173ffffffffffffffffffffffffffffffffffffffff021916908373ffffffffffffffffffffffffffffffffffffffff1602179055506000600660006101000a81548160ff021916908360028111156100ae57fe5b021790555081600581905550806004819055505050610796806100d26000396000f3fe60806040526004361061008d576000357c010000000000000000000000000000000000000000000000000000000090048063afcb20f11161006b578063afcb20f114610126578063c19d93fb146101a4578063d4f77b1c146101dd578063e5ed1d59146101f45761008d565b806370e87aaf146100925780637d94792a146100d0578063949d225d146100fb575b600080fd5b34801561009e57600080fd5b506100ce600480360360208110156100b557600080fd5b81019080803560ff169060200190929190505050610222565b005b3480156100dc57600080fd5b506100e5610351565b6040518082815260200191505060405180910390f35b34801561010757600080fd5b50610110610357565b6040518082815260200191505060405180910390f35b34801561013257600080fd5b506101756004803603602081101561014957600080fd5b81019080803573ffffffffffffffffffffffffffffffffffffffff16906020019092919050505061035d565b604051808581526020018481526020018381526020018215151515815260200194505050505060405180910390f35b3480156101b057600080fd5b506101b961039a565b604051808260028111156101c957fe5b60ff16815260200191505060405180910390f35b3480156101e957600080fd5b506101f26103ad565b005b6102206004803603602081101561020a57600080fd5b81019080803590602001909291905050506105fd565b005b60008060003373ffffffffffffffffffffffffffffffffffffffff1673ffffffffffffffffffffffffffffffffffffffff16815260200190815260200160002090506000600381111561027157fe5b82600381111561027d57fe5b141561029d57806001016000815480929190600190039190505550610344565b600160038111156102aa57fe5b8260038111156102b657fe5b14156102d5578060010160008154809291906001019190505550610343565b6003808111156102e157fe5b8260038111156102ed57fe5b141561030d57806002016000815480929190600190039190505550610342565b6002600381111561031a57fe5b82600381111561032657fe5b14156103415780600201600081548092919060010191905055505b5b5b5b61034d816106ce565b5050565b60045481565b60055481565b60006020528060005260406000206000915090508060000154908060010154908060020154908060030160009054906101000a900460ff16905084565b600660009054906101000a900460ff1681565b60008060003373ffffffffffffffffffffffffffffffffffffffff1673ffffffffffffffffffffffffffffffffffffffff16815260200190815260200160002090508060030160009054906101000a900460ff161561040b57600080fd5b60018160030160006101000a81548160ff021916908315150217905550600554600454600143034033604051602001808481526020018381526020018273ffffffffffffffffffffffffffffffffffffffff1673ffffffffffffffffffffffffffffffffffffffff166c0100000000000000000000000002815260140193505050506040516020818303038152906040528051906020012060019004816104ae57fe5b068160010181905550600554600454600243034033604051602001808481526020018381526020018273ffffffffffffffffffffffffffffffffffffffff1673ffffffffffffffffffffffffffffffffffffffff166c01000000000000000000000000028152601401935050505060405160208183030381529060405280519060200120600190048161053d57fe5b0681600201819055506001806000600554846002015402846001015401815260200190815260200160002060006101000a81548160ff0219169083151502179055507fc9b3932fab18f6ac6d50cac9682ed0c164ce31d2505f3571323a0cf5902dd68c3382600101548360020154604051808473ffffffffffffffffffffffffffffffffffffffff1673ffffffffffffffffffffffffffffffffffffffff168152602001838152602001828152602001935050505060405180910390a150565b6000600281111561060a57fe5b600660009054906101000a900460ff16600281111561062557fe5b1461062f57600080fd5b600260009054906101000a900473ffffffffffffffffffffffffffffffffffffffff1673ffffffffffffffffffffffffffffffffffffffff163373ffffffffffffffffffffffffffffffffffffffff161461068957600080fd5b8043016003819055507f50ad08f58a27f2851d7e3a1b3a6a46b290f2ce677e99642d30ff639721e777906003546040518082815260200191505060405180910390a150565b7f5dcccd950bdc677177922c5e1bf6f1b3db1fb536418873ac16289952039859b7338260010154836002015460028560000154604051808673ffffffffffffffffffffffffffffffffffffffff1673ffffffffffffffffffffffffffffffffffffffff1681526020018581526020018481526020018381526020018281526020019550505050505060405180910390a15056fea265627a7a72315820a943cd3b0367293e4a91ab6a08426cd467fb27550c05928c13a6126aef078f9664736f6c634300050b0032",
  "source": "pragma solidity ^0.5.11;\n\ncontract Miner {\n    event GameStarted(uint256 endBlock);\n    event GameEnded();\n    event PlayerMoved(address playerAddress, uint256 positionX, uint256 positionY, uint256 value, uint256 total);\n    event PlayerJoined(address playerAddress, uint256 positionX, uint256 positionY);\n\n    mapping (address => Position) public playerPositions;\n    mapping (uint => bool) tileRevealed;\n\n    struct Position {\n        uint256 total;\n        uint256 x;\n        uint256 y;\n        bool initialized;\n    }\n\n    enum Direction {\n        Left,\n        Right,\n        Down,\n        Up\n    }\n\n    enum GameState {\n        Constructed,\n        Started,\n        Ended\n    }\n\n    address owner;\n    uint256 endBlock;\n    bytes32 public seed;\n    uint256 public size;\n    GameState public state;\n\n\n    constructor(uint _size, bytes32 _seed) public {\n        owner = msg.sender;\n        state = GameState.Constructed;\n        size = _size;\n        seed = _seed;\n    }\n\n    function startGame(uint256 _blocksUntilEnd) external payable {\n        require(state == GameState.Constructed);\n        require(msg.sender == owner);\n        endBlock = block.number + _blocksUntilEnd;\n        emit GameStarted(endBlock);\n    }\n\n    function checkGameEnd() internal {\n        if(block.number > endBlock) {\n            state = GameState.Ended;\n            emit GameEnded();\n        }\n    }\n\n    function joinGame() external {\n        Position storage playerPosition = playerPositions[msg.sender];\n        require(!playerPosition.initialized);\n\n        playerPosition.initialized = true;\n        playerPosition.x = uint256(keccak256(abi.encodePacked(seed, blockhash(block.number -1), msg.sender))) % size;\n        playerPosition.y = uint256(keccak256(abi.encodePacked(seed, blockhash(block.number -2), msg.sender))) % size;\n        tileRevealed[playerPosition.x + (playerPosition.y * size)] = true;\n\n        emit PlayerJoined(msg.sender, playerPosition.x,playerPosition.y);\n    }\n\n    function move(Direction _direction) external {\n//        require(state == GameState.Started);\n        Position storage playerPosition = playerPositions[msg.sender];\n        if(_direction == Direction.Left) {\n            playerPosition.x--;\n        }else if(_direction == Direction.Right) {\n            playerPosition.x++;\n        }else if(_direction == Direction.Up){\n            playerPosition.y--;\n        } else if(_direction == Direction.Down) {\n            playerPosition.y++;\n        }\n        getRewards(playerPosition);\n    }\n\n    function getRewards(Position storage playerPosition) internal {\n//        uint256 value = map[playerPosition.x][playerPosition.y];\n//        playerPosition.total += value;\n//        map[playerPosition.x][playerPosition.y] = 0;\n        emit PlayerMoved(msg.sender, playerPosition.x, playerPosition.y,2,playerPosition.total);\n    }\n}\n",
  "sourcePath": "/Users/yjiang/git/tt/git-dapps/TT-miner/smart-contracts/contracts/Miner.sol",
  "compiler": {
    "name": "solc",
    "version": "0.5.11+commit.c082d0b4.Emscripten.clang"
  },
  "schemaVersion": "3.0.17",
  "updatedAt": "2019-11-08T03:27:36.142Z",
  "devdoc": {
    "methods": {}
  },
  "userdoc": {
    "methods": {}
  }
}