{
  "contractName": "Miner",
  "abi": [
    {
      "constant": true,
      "inputs": [],
      "name": "size",
      "outputs": [
        {
          "internalType": "uint256",
          "name": "",
          "type": "uint256"
        }
      ],
      "payable": false,
      "stateMutability": "view",
      "type": "function"
    },
    {
      "constant": true,
      "inputs": [
        {
          "internalType": "address",
          "name": "",
          "type": "address"
        }
      ],
      "name": "playerPositions",
      "outputs": [
        {
          "internalType": "uint256",
          "name": "x",
          "type": "uint256"
        },
        {
          "internalType": "uint256",
          "name": "y",
          "type": "uint256"
        },
        {
          "internalType": "bool",
          "name": "initialized",
          "type": "bool"
        }
      ],
      "payable": false,
      "stateMutability": "view",
      "type": "function"
    },
    {
      "constant": true,
      "inputs": [],
      "name": "state",
      "outputs": [
        {
          "internalType": "enum Miner.GameState",
          "name": "",
          "type": "uint8"
        }
      ],
      "payable": false,
      "stateMutability": "view",
      "type": "function"
    },
    {
      "inputs": [
        {
          "internalType": "uint256",
          "name": "_size",
          "type": "uint256"
        }
      ],
      "payable": false,
      "stateMutability": "nonpayable",
      "type": "constructor"
    },
    {
      "payable": true,
      "stateMutability": "payable",
      "type": "fallback"
    },
    {
      "anonymous": false,
      "inputs": [
        {
          "indexed": false,
          "internalType": "uint256",
          "name": "endBlock",
          "type": "uint256"
        }
      ],
      "name": "GameStarted",
      "type": "event"
    },
    {
      "anonymous": false,
      "inputs": [],
      "name": "GameEnded",
      "type": "event"
    },
    {
      "anonymous": false,
      "inputs": [
        {
          "indexed": false,
          "internalType": "address",
          "name": "playerAddress",
          "type": "address"
        },
        {
          "indexed": false,
          "internalType": "uint256",
          "name": "positionX",
          "type": "uint256"
        },
        {
          "indexed": false,
          "internalType": "uint256",
          "name": "positionY",
          "type": "uint256"
        },
        {
          "indexed": false,
          "internalType": "uint256",
          "name": "value",
          "type": "uint256"
        },
        {
          "indexed": false,
          "internalType": "uint256",
          "name": "total",
          "type": "uint256"
        }
      ],
      "name": "PlayerMoved",
      "type": "event"
    },
    {
      "anonymous": false,
      "inputs": [
        {
          "indexed": false,
          "internalType": "address",
          "name": "playerAddress",
          "type": "address"
        },
        {
          "indexed": false,
          "internalType": "uint256",
          "name": "positionX",
          "type": "uint256"
        },
        {
          "indexed": false,
          "internalType": "uint256",
          "name": "positionY",
          "type": "uint256"
        },
        {
          "indexed": false,
          "internalType": "uint256",
          "name": "value",
          "type": "uint256"
        },
        {
          "indexed": false,
          "internalType": "uint256",
          "name": "total",
          "type": "uint256"
        }
      ],
      "name": "PlayerJoined",
      "type": "event"
    },
    {
      "constant": false,
      "inputs": [
        {
          "internalType": "uint256",
          "name": "_blocksUntilEnd",
          "type": "uint256"
        }
      ],
      "name": "startGame",
      "outputs": [],
      "payable": true,
      "stateMutability": "payable",
      "type": "function"
    },
    {
      "constant": false,
      "inputs": [],
      "name": "joinGame",
      "outputs": [],
      "payable": false,
      "stateMutability": "nonpayable",
      "type": "function"
    },
    {
      "constant": false,
      "inputs": [
        {
          "internalType": "enum Miner.Direction",
          "name": "_direction",
          "type": "uint8"
        }
      ],
      "name": "move",
      "outputs": [],
      "payable": false,
      "stateMutability": "nonpayable",
      "type": "function"
    },
    {
      "constant": false,
      "inputs": [],
      "name": "kill",
      "outputs": [],
      "payable": false,
      "stateMutability": "nonpayable",
      "type": "function"
    }
  ],
  "bytecode": "0x608060405234801561001057600080fd5b50604051610a49380380610a498339818101604052602081101561003357600080fd5b810190808051906020019092919050505033600260006101000a81548173ffffffffffffffffffffffffffffffffffffffff021916908373ffffffffffffffffffffffffffffffffffffffff1602179055506000600560006101000a81548160ff021916908360028111156100a457fe5b02179055508060048190555050610989806100c06000396000f3fe60806040526004361061008d576000357c010000000000000000000000000000000000000000000000000000000090048063afcb20f11161006b578063afcb20f11461010f578063c19d93fb14610186578063d4f77b1c146101bf578063e5ed1d59146101d65761008d565b806341c0e1b51461008f57806370e87aaf146100a6578063949d225d146100e4575b005b34801561009b57600080fd5b506100a4610204565b005b3480156100b257600080fd5b506100e2600480360360208110156100c957600080fd5b81019080803560ff169060200190929190505050610277565b005b3480156100f057600080fd5b506100f9610433565b6040518082815260200191505060405180910390f35b34801561011b57600080fd5b5061015e6004803603602081101561013257600080fd5b81019080803573ffffffffffffffffffffffffffffffffffffffff169060200190929190505050610439565b6040518084815260200183815260200182151515158152602001935050505060405180910390f35b34801561019257600080fd5b5061019b610470565b604051808260028111156101ab57fe5b60ff16815260200191505060405180910390f35b3480156101cb57600080fd5b506101d4610483565b005b610202600480360360208110156101ec57600080fd5b81019080803590602001909291905050506106e7565b005b600260009054906101000a900473ffffffffffffffffffffffffffffffffffffffff1673ffffffffffffffffffffffffffffffffffffffff163373ffffffffffffffffffffffffffffffffffffffff161461025e57600080fd5b3373ffffffffffffffffffffffffffffffffffffffff16ff5b6001600281111561028457fe5b600560009054906101000a900460ff16600281111561029f57fe5b146102a957600080fd5b600354431115610304576002600560006101000a81548160ff021916908360028111156102d257fe5b02179055507f1084d47e99647565312e58bba004b0fc3088c683fa22f3925f1cf5fb0955402960405160405180910390a15b60008060003373ffffffffffffffffffffffffffffffffffffffff1673ffffffffffffffffffffffffffffffffffffffff16815260200190815260200160002090506000600381111561035357fe5b82600381111561035f57fe5b141561037f57806000016000815480929190600190039190505550610426565b6001600381111561038c57fe5b82600381111561039857fe5b14156103b7578060000160008154809291906001019190505550610425565b6003808111156103c357fe5b8260038111156103cf57fe5b14156103ef57806001016000815480929190600190039190505550610424565b600260038111156103fc57fe5b82600381111561040857fe5b14156104235780600101600081548092919060010191905055505b5b5b5b61042f816107dc565b5050565b60045481565b60006020528060005260406000206000915090508060000154908060010154908060020160009054906101000a900460ff16905083565b600560009054906101000a900460ff1681565b60008060003373ffffffffffffffffffffffffffffffffffffffff1673ffffffffffffffffffffffffffffffffffffffff16815260200190815260200160002090508060020160009054906101000a900460ff16156104e157600080fd5b60018160020160006101000a81548160ff021916908315150217905550600454600143034033604051602001808381526020018273ffffffffffffffffffffffffffffffffffffffff1673ffffffffffffffffffffffffffffffffffffffff166c010000000000000000000000000281526014019250505060405160208183030381529060405280519060200120600190048161057a57fe5b068160000181905550600454600243034033604051602001808381526020018273ffffffffffffffffffffffffffffffffffffffff1673ffffffffffffffffffffffffffffffffffffffff166c01000000000000000000000000028152601401925050506040516020818303038152906040528051906020012060019004816105ff57fe5b0681600101819055506001806000600454846001015402846000015401815260200190815260200160002060006101000a81548160ff0219169083151502179055507ffdaeea9bdf2d5c185d354e3c29b588308283910fe0de528f7d6e103dff3c2eed338260000154836001015460003373ffffffffffffffffffffffffffffffffffffffff1631604051808673ffffffffffffffffffffffffffffffffffffffff1673ffffffffffffffffffffffffffffffffffffffff1681526020018581526020018481526020018381526020018281526020019550505050505060405180910390a150565b600060028111156106f457fe5b600560009054906101000a900460ff16600281111561070f57fe5b1461071957600080fd5b600260009054906101000a900473ffffffffffffffffffffffffffffffffffffffff1673ffffffffffffffffffffffffffffffffffffffff163373ffffffffffffffffffffffffffffffffffffffff161461077357600080fd5b8043016003819055506001600560006101000a81548160ff0219169083600281111561079b57fe5b02179055507f50ad08f58a27f2851d7e3a1b3a6a46b290f2ce677e99642d30ff639721e777906003546040518082815260200191505060405180910390a150565b600060016000600454846001015402846000015401815260200190815260200160002060009054906101000a900460ff1661081f576706f05b59d3b20000610822565b60005b67ffffffffffffffff1690506001806000600454856001015402856000015401815260200190815260200160002060006101000a81548160ff0219169083151502179055503373ffffffffffffffffffffffffffffffffffffffff166108fc829081150290604051600060405180830381858888f193505050501580156108ad573d6000803e3d6000fd5b507f5dcccd950bdc677177922c5e1bf6f1b3db1fb536418873ac16289952039859b73383600001548460010154843373ffffffffffffffffffffffffffffffffffffffff1631604051808673ffffffffffffffffffffffffffffffffffffffff1673ffffffffffffffffffffffffffffffffffffffff1681526020018581526020018481526020018381526020018281526020019550505050505060405180910390a1505056fea265627a7a723158202126cb1668208e57234b2c4e9c1590ab18d4937045e17dae3e0e5499ccf40b8e64736f6c634300050b0032",
  "source": "pragma solidity ^0.5.11;\n\ncontract Miner {\n    event GameStarted(uint256 endBlock);\n    event GameEnded();\n    event PlayerMoved(address playerAddress, uint256 positionX, uint256 positionY, uint256 value, uint256 total);\n    event PlayerJoined(address playerAddress, uint256 positionX, uint256 positionY, uint256 value, uint256 total);\n\n    mapping (address => Position) public playerPositions;\n    mapping (uint => bool) tileRevealed;\n\n    struct Position {\n        uint256 x;\n        uint256 y;\n        bool initialized;\n    }\n\n    enum Direction {\n        Left,\n        Right,\n        Down,\n        Up\n    }\n\n    enum GameState {\n        Constructed,\n        Started,\n        Ended\n    }\n\n    address owner;\n    uint256 endBlock;\n    uint256 public size;\n    GameState public state;\n\n\n    constructor(uint _size) public {\n        owner = msg.sender;\n        state = GameState.Constructed;\n        size = _size;\n    }\n\n    function() external payable {}\n\n    function startGame(uint256 _blocksUntilEnd) external payable {\n        require(state == GameState.Constructed);\n        require(msg.sender == owner);\n        endBlock = block.number + _blocksUntilEnd;\n        state = GameState.Started;\n        emit GameStarted(endBlock);\n    }\n\n    function checkGameEnd() internal {\n        if(block.number > endBlock) {\n            state = GameState.Ended;\n            emit GameEnded();\n        }\n    }\n\n    function joinGame() external {\n        Position storage playerPosition = playerPositions[msg.sender];\n        require(!playerPosition.initialized);\n\n        playerPosition.initialized = true;\n        playerPosition.x = uint256(keccak256(abi.encodePacked(blockhash(block.number -1), msg.sender))) % size;\n        playerPosition.y = uint256(keccak256(abi.encodePacked(blockhash(block.number -2), msg.sender))) % size;\n        tileRevealed[playerPosition.x + (playerPosition.y * size)] = true;\n\n        emit PlayerJoined(msg.sender, playerPosition.x,playerPosition.y, 0, address(msg.sender).balance);\n    }\n\n    function move(Direction _direction) external {\n        require(state == GameState.Started);\n        if(block.number > endBlock) {\n            state = GameState.Ended;\n            emit GameEnded();\n        }\n        Position storage playerPosition = playerPositions[msg.sender];\n        if(_direction == Direction.Left) {\n            playerPosition.x--;\n        }else if(_direction == Direction.Right) {\n            playerPosition.x++;\n        }else if(_direction == Direction.Up){\n            playerPosition.y--;\n        } else if(_direction == Direction.Down) {\n            playerPosition.y++;\n        }\n        getRewards(playerPosition);\n    }\n\n    function getRewards(Position storage playerPosition) internal {\n        uint256 value = tileRevealed[playerPosition.x + (playerPosition.y * size)] ? 0 : 0.5 ether;\n        tileRevealed[playerPosition.x + (playerPosition.y * size)] = true;\n        address(msg.sender).transfer(value);\n        emit PlayerMoved(msg.sender, playerPosition.x, playerPosition.y,value, address(msg.sender).balance);\n    }\n\n    function kill() external {\n        require(msg.sender == owner);\n        selfdestruct(msg.sender);\n    }\n}\n",
  "sourcePath": "/Users/yjiang/git/tt/git-dapps/TT-miner/smart-contracts/contracts/Miner.sol",
  "compiler": {
    "name": "solc",
    "version": "0.5.11+commit.c082d0b4.Emscripten.clang"
  },
  "schemaVersion": "3.0.17",
  "updatedAt": "2019-11-09T01:27:37.217Z",
  "devdoc": {
    "methods": {}
  },
  "userdoc": {
    "methods": {}
  }
}